{
  "_format": "hh3-artifact-1",
  "contractName": "RoscaCircle",
  "sourceName": "contracts/RoscaCircle.sol",
  "abi": [
    {
      "inputs": [
        {
          "internalType": "address",
          "name": "_token",
          "type": "address"
        },
        {
          "internalType": "uint256",
          "name": "_contributionAmount",
          "type": "uint256"
        },
        {
          "internalType": "uint256",
          "name": "_memberCount",
          "type": "uint256"
        },
        {
          "internalType": "uint256",
          "name": "_roundDuration",
          "type": "uint256"
        }
      ],
      "stateMutability": "nonpayable",
      "type": "constructor"
    },
    {
      "inputs": [],
      "name": "ReentrancyGuardReentrantCall",
      "type": "error"
    },
    {
      "inputs": [
        {
          "internalType": "address",
          "name": "token",
          "type": "address"
        }
      ],
      "name": "SafeERC20FailedOperation",
      "type": "error"
    },
    {
      "anonymous": false,
      "inputs": [],
      "name": "CircleCompleted",
      "type": "event"
    },
    {
      "anonymous": false,
      "inputs": [
        {
          "indexed": true,
          "internalType": "address",
          "name": "member",
          "type": "address"
        },
        {
          "indexed": true,
          "internalType": "uint256",
          "name": "round",
          "type": "uint256"
        },
        {
          "indexed": false,
          "internalType": "uint256",
          "name": "amount",
          "type": "uint256"
        }
      ],
      "name": "Contributed",
      "type": "event"
    },
    {
      "anonymous": false,
      "inputs": [
        {
          "indexed": true,
          "internalType": "address",
          "name": "member",
          "type": "address"
        },
        {
          "indexed": false,
          "internalType": "uint256",
          "name": "index",
          "type": "uint256"
        }
      ],
      "name": "Joined",
      "type": "event"
    },
    {
      "anonymous": false,
      "inputs": [
        {
          "indexed": true,
          "internalType": "address",
          "name": "member",
          "type": "address"
        },
        {
          "indexed": true,
          "internalType": "uint256",
          "name": "round",
          "type": "uint256"
        },
        {
          "indexed": false,
          "internalType": "uint256",
          "name": "amount",
          "type": "uint256"
        }
      ],
      "name": "Refunded",
      "type": "event"
    },
    {
      "anonymous": false,
      "inputs": [
        {
          "indexed": true,
          "internalType": "uint256",
          "name": "round",
          "type": "uint256"
        },
        {
          "indexed": true,
          "internalType": "address",
          "name": "recipient",
          "type": "address"
        },
        {
          "indexed": false,
          "internalType": "uint256",
          "name": "amount",
          "type": "uint256"
        }
      ],
      "name": "RoundPaidOut",
      "type": "event"
    },
    {
      "inputs": [],
      "name": "completed",
      "outputs": [
        {
          "internalType": "bool",
          "name": "",
          "type": "bool"
        }
      ],
      "stateMutability": "view",
      "type": "function"
    },
    {
      "inputs": [],
      "name": "contribute",
      "outputs": [],
      "stateMutability": "nonpayable",
      "type": "function"
    },
    {
      "inputs": [],
      "name": "contributionAmount",
      "outputs": [
        {
          "internalType": "uint256",
          "name": "",
          "type": "uint256"
        }
      ],
      "stateMutability": "view",
      "type": "function"
    },
    {
      "inputs": [],
      "name": "currentRound",
      "outputs": [
        {
          "internalType": "uint256",
          "name": "",
          "type": "uint256"
        }
      ],
      "stateMutability": "view",
      "type": "function"
    },
    {
      "inputs": [
        {
          "internalType": "uint256",
          "name": "",
          "type": "uint256"
        },
        {
          "internalType": "address",
          "name": "",
          "type": "address"
        }
      ],
      "name": "hasContributed",
      "outputs": [
        {
          "internalType": "bool",
          "name": "",
          "type": "bool"
        }
      ],
      "stateMutability": "view",
      "type": "function"
    },
    {
      "inputs": [
        {
          "internalType": "address",
          "name": "",
          "type": "address"
        }
      ],
      "name": "isMember",
      "outputs": [
        {
          "internalType": "bool",
          "name": "",
          "type": "bool"
        }
      ],
      "stateMutability": "view",
      "type": "function"
    },
    {
      "inputs": [],
      "name": "join",
      "outputs": [],
      "stateMutability": "nonpayable",
      "type": "function"
    },
    {
      "inputs": [],
      "name": "joinedCount",
      "outputs": [
        {
          "internalType": "uint256",
          "name": "",
          "type": "uint256"
        }
      ],
      "stateMutability": "view",
      "type": "function"
    },
    {
      "inputs": [],
      "name": "locked",
      "outputs": [
        {
          "internalType": "bool",
          "name": "",
          "type": "bool"
        }
      ],
      "stateMutability": "view",
      "type": "function"
    },
    {
      "inputs": [],
      "name": "memberCount",
      "outputs": [
        {
          "internalType": "uint256",
          "name": "",
          "type": "uint256"
        }
      ],
      "stateMutability": "view",
      "type": "function"
    },
    {
      "inputs": [
        {
          "internalType": "uint256",
          "name": "",
          "type": "uint256"
        }
      ],
      "name": "members",
      "outputs": [
        {
          "internalType": "address",
          "name": "",
          "type": "address"
        }
      ],
      "stateMutability": "view",
      "type": "function"
    },
    {
      "inputs": [],
      "name": "refund",
      "outputs": [],
      "stateMutability": "nonpayable",
      "type": "function"
    },
    {
      "inputs": [],
      "name": "roundDeadline",
      "outputs": [
        {
          "internalType": "uint256",
          "name": "",
          "type": "uint256"
        }
      ],
      "stateMutability": "view",
      "type": "function"
    },
    {
      "inputs": [],
      "name": "roundDuration",
      "outputs": [
        {
          "internalType": "uint256",
          "name": "",
          "type": "uint256"
        }
      ],
      "stateMutability": "view",
      "type": "function"
    },
    {
      "inputs": [],
      "name": "token",
      "outputs": [
        {
          "internalType": "contract IERC20",
          "name": "",
          "type": "address"
        }
      ],
      "stateMutability": "view",
      "type": "function"
    }
  ],
  "bytecode": "0x610100604052348015610010575f5ffd5b5060405161109b38038061109b83398101604081905261002f916101ad565b60017f9b779b17422d0df92223018b32b4d1fa46e071723d6817e2486d003becc55f00556001600160a01b03841661009f5760405162461bcd60e51b815260206004820152600e60248201526d1d1bdad95b881c995c5d5a5c995960921b60448201526064015b60405180910390fd5b5f83116100ee5760405162461bcd60e51b815260206004820152601d60248201527f636f6e747269627574696f6e206d75737420626520706f7369746976650000006044820152606401610096565b600282101561013f5760405162461bcd60e51b815260206004820152601760248201527f6e656564206174206c656173742032206d656d626572730000000000000000006044820152606401610096565b5f811161018e5760405162461bcd60e51b815260206004820152601f60248201527f726f756e64206475726174696f6e206d75737420626520706f736974697665006044820152606401610096565b6001600160a01b0390931660805260a09190915260c05260e0526101f4565b5f5f5f5f608085870312156101c0575f5ffd5b84516001600160a01b03811681146101d6575f5ffd5b60208601516040870151606090970151919890975090945092505050565b60805160a05160c05160e051610e1a6102815f395f81816102360152818161065b0152610b7301525f818160f90152818161062401528181610a680152610b0b01525f8181610168015281816104060152818161048201528181610865015281816108e20152610a8901525f818161025d0152818161045f015281816108be0152610ba90152610e1a5ff3fe608060405234801561000f575f5ffd5b50600436106100f0575f3560e01c8063af8532e311610093578063cf8515f411610063578063cf8515f414610222578063d7bb99ba14610229578063f7cb789a14610231578063fc0c546a14610258575f5ffd5b8063af8532e3146101d7578063b5b96ae0146101e0578063b688a3631461020d578063cf30901214610215575f5ffd5b80635fa0b65f116100ce5780635fa0b65f146101635780638a19c8bc1461018a5780639d9a7fe914610193578063a230c524146101b5575f5ffd5b806311aee380146100f4578063590e1ae31461012e5780635daf08ca14610138575b5f5ffd5b61011b7f000000000000000000000000000000000000000000000000000000000000000081565b6040519081526020015b60405180910390f35b61013661027f565b005b61014b610146366004610ce5565b6104d1565b6040516001600160a01b039091168152602001610125565b61011b7f000000000000000000000000000000000000000000000000000000000000000081565b61011b60035481565b6005546101a590610100900460ff1681565b6040519015158152602001610125565b6101a56101c3366004610d17565b60016020525f908152604090205460ff1681565b61011b60045481565b6101a56101ee366004610d37565b600260209081525f928352604080842090915290825290205460ff1681565b6101366104f8565b6005546101a59060ff1681565b5f5461011b565b610136610685565b61011b7f000000000000000000000000000000000000000000000000000000000000000081565b61014b7f000000000000000000000000000000000000000000000000000000000000000081565b61028761091e565b60055460ff166102d45760405162461bcd60e51b815260206004820152601360248201527218da5c98db19481b9bdd08199d5b1b081e595d606a1b60448201526064015b60405180910390fd5b600554610100900460ff161561031f5760405162461bcd60e51b815260206004820152601060248201526f18da5c98db194818dbdb5c1b195d195960821b60448201526064016102cb565b600454421161037a5760405162461bcd60e51b815260206004820152602160248201527f726f756e6420646561646c696e6520686173206e6f74207061737365642079656044820152601d60fa1b60648201526084016102cb565b6003545f90815260026020908152604080832033845290915290205460ff166103d95760405162461bcd60e51b81526020600482015260116024820152701b9bdd1a1a5b99c81d1bc81c99599d5b99607a1b60448201526064016102cb565b600380545f9081526002602090815260408083203380855290835292819020805460ff19169055925492517f000000000000000000000000000000000000000000000000000000000000000081527f2dc8e290002f06fc0085bbca9dfb8b415cf4d1178950c72ff9ee8f4d8878ee66910160405180910390a36104a66001600160a01b037f000000000000000000000000000000000000000000000000000000000000000016337f000000000000000000000000000000000000000000000000000000000000000061094c565b6104cf60017f9b779b17422d0df92223018b32b4d1fa46e071723d6817e2486d003becc55f0055565b565b5f81815481106104df575f80fd5b5f918252602090912001546001600160a01b0316905081565b60055460ff161561053c5760405162461bcd60e51b815260206004820152600e60248201526d18da5c98db19481a5cc8199d5b1b60921b60448201526064016102cb565b335f9081526001602052604090205460ff161561058c5760405162461bcd60e51b815260206004820152600e60248201526d185b1c9958591e481a9bda5b995960921b60448201526064016102cb565b335f8181526001602081905260408220805460ff191682179055815480820183558280527f290decd9548b62a8d60345a988386fc84ba6bc95484008f6362f93160ef3e5630180546001600160a01b0319168417905590547f49f8fa5eee2e3f21251c2e968640dcaef35cb9332429eb059bb3cd56ddc2533d9161060f91610d75565b60405190815260200160405180910390a25f547f000000000000000000000000000000000000000000000000000000000000000090036104cf576005805460ff191660011790556106807f000000000000000000000000000000000000000000000000000000000000000042610d8e565b600455565b61068d61091e565b60055460ff166106d55760405162461bcd60e51b815260206004820152601360248201527218da5c98db19481b9bdd08199d5b1b081e595d606a1b60448201526064016102cb565b600554610100900460ff16156107205760405162461bcd60e51b815260206004820152601060248201526f18da5c98db194818dbdb5c1b195d195960821b60448201526064016102cb565b335f9081526001602052604090205460ff1661076d5760405162461bcd60e51b815260206004820152600c60248201526b3737ba10309036b2b6b132b960a11b60448201526064016102cb565b6003545f90815260026020908152604080832033845290915290205460ff16156107d95760405162461bcd60e51b815260206004820152601e60248201527f616c726561647920636f6e7472696275746564207468697320726f756e64000060448201526064016102cb565b6004544211156108355760405162461bcd60e51b815260206004820152602160248201527f726f756e6420646561646c696e65207061737365642c2075736520726566756e6044820152601960fa1b60648201526084016102cb565b600380545f9081526002602090815260408083203380855290835292819020805460ff19166001179055925492517f000000000000000000000000000000000000000000000000000000000000000081527ffa35a310d7113dddce1c275da946348e9aaebf9050b00b372033c4d84b0bd6eb910160405180910390a36109066001600160a01b037f00000000000000000000000000000000000000000000000000000000000000001633307f0000000000000000000000000000000000000000000000000000000000000000610986565b6109116003546109c2565b156104a6576104a6610a39565b610926610bd4565b60027f9b779b17422d0df92223018b32b4d1fa46e071723d6817e2486d003becc55f0055565b6109598383836001610c16565b61098157604051635274afe760e01b81526001600160a01b03841660048201526024016102cb565b505050565b610994848484846001610c78565b6109bc57604051635274afe760e01b81526001600160a01b03851660048201526024016102cb565b50505050565b5f8054815b81811015610a2f5760025f8581526020019081526020015f205f5f83815481106109f3576109f3610da1565b5f9182526020808320909101546001600160a01b0316835282019290925260400190205460ff16610a2757505f9392505050565b6001016109c7565b5060019392505050565b5f5f60035481548110610a4e57610a4e610da1565b5f9182526020822001546001600160a01b03169150610aad7f00000000000000000000000000000000000000000000000000000000000000007f0000000000000000000000000000000000000000000000000000000000000000610db5565b9050816001600160a01b03166003547ff1677b14a8cee6679f3ffe3fac89b3aaf3996e8ba82f58d9d1765096c4cc104383604051610aed91815260200190565b60405180910390a360038054905f610b0483610dcc565b91905055507f000000000000000000000000000000000000000000000000000000000000000060035403610b6e576005805461ff0019166101001790556040517fdf90819e1122eef4a1d19215dfe6aa85aa2f8a1c60e53ae52143e1fd6c5f3bee905f90a1610b9c565b610b987f000000000000000000000000000000000000000000000000000000000000000042610d8e565b6004555b610bd06001600160a01b037f000000000000000000000000000000000000000000000000000000000000000016838361094c565b5050565b7f9b779b17422d0df92223018b32b4d1fa46e071723d6817e2486d003becc55f00546002036104cf57604051633ee5aeb560e01b815260040160405180910390fd5b60405163a9059cbb60e01b5f8181526001600160a01b038616600452602485905291602083604481808b5af1925060015f51148316610c6c578383151615610c60573d5f823e3d81fd5b5f873b113d1516831692505b60405250949350505050565b6040516323b872dd60e01b5f8181526001600160a01b038781166004528616602452604485905291602083606481808c5af1925060015f51148316610cd4578383151615610cc8573d5f823e3d81fd5b5f883b113d1516831692505b604052505f60605295945050505050565b5f60208284031215610cf5575f5ffd5b5035919050565b80356001600160a01b0381168114610d12575f5ffd5b919050565b5f60208284031215610d27575f5ffd5b610d3082610cfc565b9392505050565b5f5f60408385031215610d48575f5ffd5b82359150610d5860208401610cfc565b90509250929050565b634e487b7160e01b5f52601160045260245ffd5b81810381811115610d8857610d88610d61565b92915050565b80820180821115610d8857610d88610d61565b634e487b7160e01b5f52603260045260245ffd5b8082028115828204841417610d8857610d88610d61565b5f60018201610ddd57610ddd610d61565b506001019056fea26469706673582212200b447f2df8d1a3f15ec939f1259b94004a0336ca59d425c48716cba230ab67b264736f6c634300081c0033",
  "linkReferences": {},
  "deployedLinkReferences": {},
  "immutableReferences": {
    "889": [
      {
        "length": 32,
        "start": 605
      },
      {
        "length": 32,
        "start": 1119
      },
      {
        "length": 32,
        "start": 2238
      },
      {
        "length": 32,
        "start": 2985
      }
    ],
    "891": [
      {
        "length": 32,
        "start": 360
      },
      {
        "length": 32,
        "start": 1030
      },
      {
        "length": 32,
        "start": 1154
      },
      {
        "length": 32,
        "start": 2149
      },
      {
        "length": 32,
        "start": 2274
      },
      {
        "length": 32,
        "start": 2697
      }
    ],
    "893": [
      {
        "length": 32,
        "start": 249
      },
      {
        "length": 32,
        "start": 1572
      },
      {
        "length": 32,
        "start": 2664
      },
      {
        "length": 32,
        "start": 2827
      }
    ],
    "895": [
      {
        "length": 32,
        "start": 566
      },
      {
        "length": 32,
        "start": 1627
      },
      {
        "length": 32,
        "start": 2931
      }
    ]
  },
  "inputSourceName": "project/contracts/RoscaCircle.sol",
  "buildInfoId": "solc-0_8_28-5a66efa3875211885351a80a55a08d3863f9dfd4"
}